:100000000C9434000C9451000C9451000C94510049
:100010000C9451000C9451000C9451000C9451001C
:100020000C9451000C9451000C9451000C9451000C
:100030000C9451000C9451000C9451000C945100FC
:100040000C9451000C9451000C9451000C945100EC
:100050000C9451000C9451000C9451000C945100DC
:100060000C9451000C94510011241FBECFEFD8E026
:10007000DEBFCDBF11E0A0E0B1E0E8EFF0E002C0EC
:1000800005900D92A830B107D9F721E0A8E0B1E0C2
:1000900001C01D92A231B207E1F70E9453000C94F7
:1000A0007A000C9400008FE187B92FE14FE150E016
:1000B00028B93FEF69E678E1315060407040E1F7E0
:1000C00000C0000080E090E0BA01082E02C07595E3
:1000D00067950A94E2F768B93FEF69E678E1315035
:1000E00060407040E1F700C0000001968630910545
:0800F00059F7DECFF894FFCFB1
:0800F800010204081020408001
:00000001FF
